:020000040800F2
:1000000000000220892A0008D9100008DB1000082F
:10001000DD100008DF100008E110000800000000FB
:10002000000000000000000000000000E3100008D5
:10003000E510000800000000E7100008E9100008C3
:10004000D92A0008D92A0008D92A0008D92A000884
:10005000D92A0008D92A0008D92A0008D92A000874
:10006000D92A0008D92A0008D92A0008D92A000864
:10007000D92A0008D92A0008D92A0008D92A000854
:10008000D92A0008D92A0008D92A0008000000004F
:10009000000000000000000000000000D92A000855
:1000A000D92A0008D92A0008D92A0008D92A000824
:1000B000D92A0008D92A0008F1100008D92A000816
:1000C000D92A0008D92A0008D92A0008D92A000804
:1000D000D92A0008D92A0008D92A000800000000FF
:1000E000D92A0008D92A0008D92A000800000000EF
:1000F000000000000000000000000000D92A0008F5
:1001000000000000D92A000801110008D92A0008BF
:1001100000000000000000000000000000000000DF
:10012000D92A0008D92A0008D92A0008D92A0008A3
:10013000D92A0008000000000000000000000000B4
:10014000000000000000000000000000D92A0008A4
:10015000D92A0008D92A0008D92A0008D92A000873
:10016000D92A0008D92A0008000000000000000079
:10017000000000000000000000000000000000007F
:1001800000000000D92A0008000000000000000064
:08019000D92A0008D92A000851
:1001980081F0004102E000BF83F0004330B54FEA30
:1001A80041044FEA430594EA050F08BF90EA020F9D
:1001B8001FBF54EA000C55EA020C7FEA645C7FEA30
:1001C800655C00F0E2804FEA5454D4EB5555B8BF53
:1001D8006D420CDD2C4480EA020281EA030382EAC4
:1001E800000083EA010180EA020281EA0303362D56
:1001F80088BF30BD11F0004F4FEA01314FF4801C29
:100208004CEA113102D0404261EB410113F0004F3A
:100218004FEA03334CEA133302D0524263EB4303F1
:1002280094EA050F00F0A780A4F10104D5F1200E8F
:100238000DDB02FA0EFC22FA05F2801841F10001EA
:1002480003FA0EF2801843FA05F359410EE0A5F1BE
:1002580020050EF1200E012A03FA0EFC28BF4CF0EF
:10026800020C43FA05F3C01851EBE37101F00045A5
:1002780007D54FF0000EDCF1000C7EEB00006EEBB2
:100288000101B1F5801F1BD3B1F5001F0CD349083C
:100298005FEA30004FEA3C0C04F101044FEA445293
:1002A80012F5800F80F09A80BCF1004F08BF5FEA1A
:1002B800500C50F1000041EB045141EA050130BDFA
:1002C8005FEA4C0C404141EB0101013C28BFB1F50C
:1002D800801FE9D291F0000F04BF01460020B1FA57
:1002E80081F308BF2033A3F10B03B3F120020CDA2A
:1002F8000C3208DD02F1140CC2F10C0201FA0CF008
:1003080021FA02F10CE002F11402D8BFC2F1200C6C
:1003180001FA02F120FA0CFCDCBF41EA0C01904022
:10032800E41AA2BF01EB0451294330BD6FEA04046B
:100338001F3C1CDA0C340EDC04F11404C4F1200256
:1003480020FA04F001FA02F340EA030021FA04F368
:1003580045EA030130BDC4F10C04C4F1200220FABF
:1003680002F001FA04F340EA0300294630BD21FAFD
:1003780004F0294630BD94F0000F83F4801306BFC3
:1003880081F480110134013D4EE77FEA645C18BFB7
:100398007FEA655C29D094EA050F08BF90EA020F4E
:1003A80005D054EA000C04BF1946104630BD91EA46
:1003B800030F1EBF0021002030BD5FEA545C05D149
:1003C8004000494128BF41F0004130BD14F5800488
:1003D8003CBF01F5801130BD01F0004545F0FE41FC
:1003E80041F470014FF0000030BD7FEA645C1ABF31
:1003F800194610467FEA655C1CBF0B46024650EA68
:10040800013406BF52EA033591EA030F41F4002193
:1004180030BD00BF90F0000F04BF0021704730B519
:100428004FF4806404F132044FF000054FF00001EE
:1004380050E700BF90F0000F04BF0021704730B5AF
:100448004FF4806404F1320410F0004548BF404284
:100458004FF000013EE700BF42004FEAE2014FEAD9
:1004680031014FEA02701FBF12F07F4393F07F4FB4
:1004780081F06051704732F07F4208BF704793F0B7
:100488007F4F04BF41F40021704730B54FF46074CA
:1004980001F0004521F000411CE700BF50EA0102CD
:1004A80008BF704730B54FF000050AE050EA010276
:1004B80008BF704730B511F0004502D5404261EBE6
:1004C80041014FF4806404F132045FEA915C3FF427
:1004D800D8AE4FF003025FEADC0C18BF03325FEAC4
:1004E800DC0C18BF033202EBDC02C2F1200300FA75
:1004F80003FC20FA02F001FA03FE40EA0E0021FA9A
:1005080002F11444BDE600BF4A0011D212F50012F0
:1005180011D20DD56FF47873B3EB62520ED44FEA53
:10052800C12343F0004343EA505323FA02F07047D3
:100538004FF00000704750EA013002D14FF0FF3011
:1005480070474FF00000704753B94AB9002908BFF7
:1005580000281CBF4FF0FF314FF0FF3000F00CB8FF
:10056800ADF1080C6DE904CE02F030FBDDF804E0D3
:10057800DDE9022304B07047704700BF0348044B0D
:10058800834202D0034B03B1184770471C00002078
:100598001C000020000000000548064B1B1AD90F5C
:1005A80001EBA301491002D0034B03B11847704770
:1005B8001C0000201C0000200000000010B5064CA4
:1005C800237843B9FFF7DAFF044B13B10448AFF3BC
:1005D80000800123237010BD1C00002000000000D3
:1005E8009C2E000808B5054B1BB105490548AFF31B
:1005F8000080BDE80840FFF7CFBF00BF0000000043
:10060800200000209C2E00082DE9F0418AB000242B
:10061800059406940794089409940194334B1A6B33
:1006280042F004021A631A6B02F004020192019A62
:1006380002941A6B42F080021A631A6B02F080026D
:100648000292029A03941A6B42F001021A631A6B1F
:1006580002F001020392039A04941A6B42F0020218
:100668001A631B6B03F002030493049BDFF8888072
:1006780022464FF40051404601F09FFE1C4F22468F
:1006880040F6FC11384601F098FE1A4D22460F211B
:10069800284601F092FE4FF4005305930126069672
:1006A8000794089405A9404601F09CFD40F6FC1308
:1006B800059306960794089405A9384601F092FD1B
:1006C8000F23059306960794089405A9284601F078
:1006D80089FD4FF4304305930694079405A92846ED
:1006E80001F080FD0AB0BDE8F08100BF003802408B
:1006F80000000240000402400008024070B50646AF
:1007080001220821154801F058FE002413E0134D7A
:1007180000221021284601F050FE46FA04F202F0A9
:1007280001020421284601F048FE01221021284632
:1007380001F043FE0134072CE9DD084C00221021AA
:10074800204601F03AFE01221021204601F035FE34
:1007580000220821204601F030FE70BD0000024052
:1007680070B5064601224021154801F026FE0024F6
:1007780013E0134D00228021284601F01EFE46FAA0
:1007880004F202F001022021284601F016FE01229F
:100798008021284601F011FE0134072CE9DD084CC0
:1007A80000228021204601F008FE012280212046F7
:1007B80001F003FE00224021204601F0FEFD70BD3D
:1007C8000000024070B5064601220221154801F0DA
:1007D800F4FD002413E0134D00220421284601F003
:1007E800ECFD46FA04F202F001020121284601F06C
:1007F800E4FD01220421284601F0DFFD0134072C25
:10080800E9DD084C00220421204601F0D6FD012232
:100818000421204601F0D1FD00220221204601F0EA
:10082800CCFD70BD0004024038B505460C464B4B64
:100838001A68904253D94A4B1B689B1A03EB43032F
:1008480002EB9302904254D2464B1B689C425AD208
:10085800454A12689A1AA3EB92039C425CD3424B16
:100868001B689C4261D93F4A1268D21A03EB920373
:100878009C4264D83B4B19683B4B1A688B1A03EBB4
:10088800C3033A48A0FB0303D808A1EBD3039C4257
:1008980004D8944202D9364B1B68DBB10244944217
:1008A80004D38C4202D2334B1B689BB12C4B1A6881
:1008B8002A4B1868131A03EBC3032C49A1FB031333
:1008C800A2EBD302954244D8854242D92A4B1B68F1
:1008D800002B3ED10421294801F08AF83DE001228D
:1008E8004FF48071264801F068FD234B01221A60FD
:1008F800AAE700224FF48071214801F05EFD1E4BEB
:1009080000221A60A0E7012208211E4801F055FDC7
:10091800184B01221A60A2E700220821194801F0A9
:100928004CFD144B00221A6099E701224FF4006134
:10093800134801F042FD0E4B01221A609AE700228B
:100948004FF400610E4801F038FD094B00221A608F
:1009580090E70421094801F0C3F838BD0C000020D5
:10096800080000200000002004000020CDCCCCCCE2
:100978004000002070010020680100209000002045
:10098800000002400004024030B58DB086460D4696
:100998000DF1040C164C0FCCACE80F000FCCACE8F2
:1009A8000F0094E807008CE80700BEF1020F0FD093
:1009B800BEF1030F14D0BEF1010F01D00DB030BD50
:1009C8000CAB03EB850111F82C0CFFF797FEF5E74C
:1009D8000CAB03EB850111F82C0CFFF7C1FEEDE71A
:1009E8000CAB03EB850111F82C0CFFF7EBFEE5E7E8
:1009F800B42E000838B505460FE0FA2001F0A2FD34
:100A080001354FF40051164801F0D0FCF0B14FF415
:100A18000041134801F0CAFCE8B1124B83FB0523DF
:100A2800EC17C4EBA30421460220FFF7ADFF04EB4B
:100A38008404A5EB44010320FFF7A6FF4FF480517F
:100A4800074801F0B3FC0028DBD1D6E7FA2001F013
:100A580079FD013DDBE7FA2001F074FD284638BD39
:100A6800000402406766666672B6FEE700B585B0A8
:100A7800002300930193029303931448144A0260DD
:100A88004FF48032426083600361037680F820303F
:100A9800C362104A8262C3600122C26180F83030AA
:100AA800426101F007FE60B901230093019300231E
:100AB80002936946054801F00DFF20B905B05DF8BD
:100AC80004FBFFF7D1FFFFF7CFFF00BF480000206E
:100AD800002001400100000F00B587B000230293F9
:100AE800039304930593009301931448144A0260F6
:100AF80042F27F524260836042F21072C260036128
:100B0800836100F0E1FD90B94FF48053029302A98C
:100B18000A4800F0DEFE60B900230093019369469D
:100B2800064801F01FF830B907B05DF804FBFFF77D
:100B38009BFFFFF799FFFFF797FF00BFD800002042
:100B48000008004000B58BB0002308930993019377
:100B58000293039304930593069307931848194A3D
:100B6800026042F27F52426083604FF47A72C26040
:100B78000361836100F0D4FDE0B900230893099371
:100B880008A90F4800F0EEFFB0B9602301934FF4B5
:100B9800FA73029300230393059304220DEB0201D9
:100BA800074800F01BFE48B9054800F04FFB0BB0A2
:100BB8005DF804FBFFF758FFFFF756FFFFF754FFF8
:100BC800900000200004004000B587B00023029385
:100BD800039304930593009301931448144A026005
:100BE80042F27F524260836042F21072C260036137
:100BF800836100F069FD90B94FF48053029302A914
:100C08000A4800F066FE60B9002300930193694624
:100C1800064800F0A7FF30B907B05DF804FBFFF7FE
:100C280023FFFFF721FFFFF71FFF00BF2001002070
:100C3800000C004000B595B03022002108A801F052
:100C480048FF0023039304930593069307930193A6
:100C58001F4A116C41F080511164126C02F08052ED
:100C68000192019A02931B4B1A6842F440421A609F
:100C78001B6803F440430293029B012308934FF43B
:100C88008033099302230E934FF480020F921922A6
:100C98001092C022119212930423139308A800F013
:100CA800A1FF88B90F23039302230493002305931C
:100CB8004FF4805206920793032103A801F0E2F94A
:100CC80020B915B05DF804FBFFF7CEFEFFF7CCFEA8
:100CD800003802400070004038B501F007FCFFF70B
:100CE800A9FFFFF791FCFFF7C1FEFFF7F5FEFFF73D
:100CF80029FFFFF769FF00224FF40051854801F0F2
:100D08005CFB854D01220821284601F056FB834CE7
:100D180001224FF40061204601F04FFB01224FF4FD
:100D28008071204601F049FB4FF47A7001F00AFC0B
:100D380000220821284601F040FB00224FF4006100
:100D4800204601F03AFB00224FF48071204601F062
:100D580034FB0020FFF7D2FC0020FFF701FD002044
:100D6800FFF730FD6E4800F051FB6E4800F04EFB77
:100D7800BEE00A210220FFF707FE0A210320FFF741
:100D880003FE4FF40041644801F010FB002866D0D0
:100D98004FF48051604801F009FB00286DD1FA201A
:100DA80001F0D0FB604B1B68042B6DD8DFE803F023
:100DB8009A82888E94005D4D29685D4CA4FB0131B0
:100DC800C9080220FFF7E0FD2968A4FB0134E40804
:100DD80004EB8404A1EB44010320FFF7D5FDD0E721
:100DE800544D2968524CA4FB0131C9080220FFF771
:100DF800CBFD2968A4FB0134E40804EB8404A1EBCF
:100E080044010320FFF7C0FDBBE74B4D2968484C60
:100E1800A4FB0131C9080220FFF7B6FD2968A4FB2D
:100E28000134E40804EB8404A1EB44010320FFF738
:100E3800ABFDA6E7414D29683D4CA4FB0131C9082B
:100E48000220FFF7A1FD2968A4FB0134E40804EBA4
:100E58008404A1EB44010320FFF796FD91E74FF4CA
:100E6800FA7001F06FFB304A136801331360042BEA
:100E78008ED9134600221A608AE74FF4005126489B
:100E880001F094FA00288AD0274C21680120FFF746
:100E98007BFD2368042B3FF674AF01A252F823F0C0
:100EA8007B0D0008BF0D0008E90D0008130E0008AF
:100EB8003D0E00081D4C2068FFF79CFD2060E3E70D
:100EC8001C4C2068FFF796FD2060DDE71A4C20686F
:100ED800FFF790FD2060D7E7184C2068FFF78AFDE0
:100EE8002060D1E70E4800F091FA0E4800F08EFA23
:100EF8004FF40041084801F059FA0028F2D14FF4A4
:100F0800FA7001F01FFB064800F0BCFA054800F033
:100F1800B9FAB9E7000802400004024000000240A4
:100F2800D8000020200100206C01002004000020CF
:100F3800CDCCCCCC000000200C0000200800002004
:100F480000B585B0002300930193029303930090AA
:100F5800012301936946044801F0BCFC10B905B0AF
:100F68005DF804FBFFF780FD4800002070B52DED0B
:100F7800028B044602684C4B9A4206D022684B4BBF
:100F88009A4257D0BDEC028B70BD0120FFF7D8FF05
:100F9800474D284601F0BAFB6421284601F03AFC87
:100FA800284601F093FC434B186000EB400000EB2F
:100FB800401007EE900AF8EE677A9FED3F8AC7EE79
:100FC800887A17EE900AFFF747FA41EC100B01F008
:100FD800ADFD51EC100B394EFFF796FA306000204A
:100FE800FFF7AEFF284601F091FB6421284601F087
:100FF80011FC284601F06AFC314B186000EB4000F8
:1010080000EB401007EE900AF8EE677AC7EE887A90
:1010180017EE900AFFF720FA41EC100B01F086FD5D
:1010280051EC100BFFF770FA264B18603168FFF788
:10103800FBFBA3E7244B1B68012B1AD0F020FFF71A
:101048005DFB1E4D2968214CA4FB0131C908022013
:10105800FFF79AFC2968A4FB0134E40804EB840434
:10106800A1EB44010320FFF78FFC174B01221A6004
:1010780088E73820FFF742FB124D2968134CA4FB80
:101088000131C9080220FFF77FFC2968A4FB01345D
:10109800E40804EB8404A1EB44010320FFF774FC8B
:1010A800094B00221A606DE700080040000C004060
:1010B800480000203800002000F07F45740100201F
:1010C8003C0000207801002044000020CDCCCCCC8E
:1010D800FEE7FEE7FEE7FEE7FEE77047704770476A
:1010E80008B501F01DFA08BD08B5024800F0E7F997
:1010F80008BD00BFD800002008B5024800F0DFF99D
:1011080008BD00BF2001002082B0002100910B4BD8
:101118005A6C42F480425A645A6C02F4804200923B
:10112800009A01911A6C42F080521A641B6C03F009
:1011380080530193019B02B0704700BF0038024002
:1011480000B589B00023039304930593069307938E
:10115800026803F1804303F590339A4202D009B044
:101168005DF804FB0021019103F58C335A6C42F4BD
:1011780080725A645A6C02F480720192019A029148
:101188001A6B42F001021A631B6B03F0010302930E
:10119800029B03230393049303A9024801F022F856
:1011A800DDE700BF000002400268094B9A4200D008
:1011B800704782B000230193064B1A6C42F002027A
:1011C8001A641B6C03F002030193019B02B0704781
:1011D800000400400038024000B583B00368184A94
:1011E800934205D0174A934216D003B05DF804FB2A
:1011F80000210091144B1A6C42F004021A641B6C13
:1012080003F004030093009B0A461E2001F0EEF849
:101218001E2001F023F9E8E7002101910A4B1A6C1E
:1012280042F008021A641B6C03F008030193019B47
:101238000A46322001F0DAF8322001F00FF9D4E73B
:1012480000080040000C00400038024000B587B09C
:1012580000230193029303930493059302680E4BB2
:101268009A4202D007B05DF804FB002300930B4BB1
:101278001A6B42F002021A631B6B03F0020300931D
:10128800009B2023019302230293059301A904489C
:1012980000F0A8FFE6E700BF000400400038024065
:1012A8000004024030B4026A036A23F001030362B7
:1012B8004568836923F073030C681C4322F002021B
:1012C8008B6813430D4A904209D00C4A90420DD0C6
:1012D800456084614A684263036230BC704723F00A
:1012E8000803CA681A4322F00403EEE725F44075A0
:1012F8004A692A438D691543EAE700BF00000140A7
:1013080030B4036A026A22F4807202624468C269D5
:1013180022F073020D68154323F400738A6843EAC8
:1013280002230F4A904209D00D4A90420ED04460E1
:10133800C5614A68C263036230BC704723F4006326
:10134800CA6843EA022323F48063EDE724F4405497
:101358004A6944EA02148A6944EA0214E7E700BFCA
:101368000000014030B4036A026A22F4805202622B
:101378004468C26922F4E6420D6842EA052223F471
:1013880000538D6843EA0533074DA84206D04460F0
:10139800C2614A680264036230BC704724F4804426
:1013A8004D6944EA8514F2E70000014010B4036A6D
:1013B800046A24F001040462846924F0F00C4CEA05
:1013C800021223F00A030B43826103625DF8044BA7
:1013D800704710B4036A046A24F010040462846934
:1013E80024F4704C4CEA023223F0A00343EA0113C0
:1013F800826103625DF8044B7047836823F07003D1
:101408000B4343F0070383607047000090F83D30BA
:10141800DBB2012B2FD1022380F83D300268D3685C
:1014280043F00103D3600368154A934218D0B3F11F
:10143800804F15D0A2F57C42934211D002F580620C
:1014480093420DD002F58062934209D002F59A3298
:10145800934205D01A6842F001021A6000207047D2
:101468009A6802F00702062A07D01A6842F00102B9
:101478001A6000207047012070470020704700BFA5
:10148800000001400268D36823F00103D3600368B9
:10149800196A41F21112114208D1196A40F2444204
:1014A800114203D11A6822F001021A60012380F860
:1014B8003D3000207047704770477047704770B5DF
:1014C80004460368DE681D6915F0020F10D016F097
:1014D800020F0DD06FF002021A610123037703682F
:1014E8009B6913F0030F5ED0FFF7E6FF0023237715
:1014F80015F0040F12D016F0040F0FD023686FF008
:1015080004021A610223237723689B6913F4407F3E
:101518004FD02046FFF7D0FF0023237715F0080FA0
:1015280012D016F0080F0FD023686FF008021A6166
:10153800042323772368DB6913F0030F40D0204688
:10154800FFF7BAFF0023237715F0100F12D016F01B
:10155800100F0FD023686FF010021A610823237749
:101568002368DB6913F4407F31D02046FFF7A4FFDE
:101578000023237715F0010F02D016F0010F2DD1AB
:1015880015F0800F02D016F0800F2FD115F0400F04
:1015980002D016F0400F31D115F0200F02D016F00E
:1015A800200F33D170BDFFF786FF2046FFF785FF78
:1015B8009CE72046FFF77FFF2046FFF77EFFABE75B
:1015C8002046FFF778FF2046FFF777FFBAE7204667
:1015D800FFF771FF2046FFF770FFC9E723686FF038
:1015E80001021A612046FFF7C1FCC9E723686FF0C2
:1015F80080021A61204600F0F4FAC7E723686FF00A
:1016080040021A612046FFF759FFC5E723686FF0CB
:1016180020021A61204600F0E3FAC3E70368294A6A
:1016280090420ED0B0F1804F0BD0A2F57C42904290
:1016380007D002F58062904203D002F580629042A2
:1016480003D123F070034A6813431E4A90421AD00C
:10165800B0F1804F17D0A2F57C42904213D002F52A
:10166800806290420FD002F5806290420BD002F562
:101678009A32904207D002F58062904203D002F578
:101688008062904203D123F44073CA68134323F065
:1016980080034A69134303608B68C3620B688362E3
:1016A800084B98420AD001234361036913F0010FE4
:1016B80003D0036923F00103036170470B690363D7
:1016C800F1E700BF0000014040B310B5044690F8B0
:1016D8003D30F3B1022384F83D30214651F8040B24
:1016E800FFF79CFF012384F8463084F83E3084F8E5
:1016F8003F3084F8403084F8413084F8423084F830
:10170800433084F8443084F8453084F83D30002074
:1017180010BD80F83C30FFF75FFDDBE70120704724
:1017280040B310B5044690F83D30F3B1022384F875
:101738003D30214651F8040BFFF770FF012384F870
:10174800463084F83E3084F83F3084F8403084F8DE
:10175800413084F8423084F8433084F8443084F8C7
:10176800453084F83D30002010BD80F83C30FFF74C
:101778001BFDDBE70120704730B4036A026A22F0E0
:10178800100202624468826922F4E6420D6842EA65
:10179800052223F020038D6843EA05130E4DA84265
:1017A80009D00D4DA8420ED0446082614A68826318
:1017B800036230BC704723F08003CD6843EA051309
:1017C80023F04003EDE724F440644D6944EA8504BE
:1017D8008D6944EA8504E7E70000014038B590F8D0
:1017E8003C30012B66D004460D46012380F83C307E
:1017F8000C2A5AD8DFE802F0075959591B59595988
:101808003059595944000068FFF74CFD2268936924
:1018180043F0080393612268936923F004039361FA
:101828002268936929690B43936100203EE00068B0
:10183800FFF7A2FF2268936943F40063936122686B
:10184800936923F48063936122689369296943EA61
:1018580001239361002029E00068FFF751FD226809
:10186800D36943F00803D3612268D36923F00403E2
:10187800D3612268D36929690B43D361002015E03D
:101888000068FFF76FFD2268D36943F40063D361F2
:101898002268D36923F48063D3612268D3692969F4
:1018A80043EA0123D361002000E00120002384F8EB
:1018B8003C3038BD0220FCE710B4846824F47F4C27
:1018C80042EA03220A4342EA0C0282605DF8044BB2
:1018D800704790F83C30012B78D010B504460123AE
:1018E80080F83C30022380F83D300268936823F486
:1018F8007F4323F0770393600B68602B4CD029D883
:10190800402B54D00CD9502B22D1CA6849680068A2
:10191800FFF74CFD50212068FFF76FFD002005E020
:10192800202B0DD009D9302B0AD00120012384F8AF
:101938003D30002384F83C3010BD0BB1102B05D18D
:1019480019462068FFF759FD0020EFE70120EDE771
:101958000120EBE7B3F5805F34D0B3F5005F0CD11D
:10196800CB684A6889680068FFF7A6FF2268936811
:1019780043F4804393600020D8E7702B24D1CB68D0
:101988004A6889680068FFF797FF2268936843F000
:10199800770393600020C9E7CA6849680068FFF7C1
:1019A80018FD60212068FFF728FD0020BEE7CA68FF
:1019B80049680068FFF7FAFC40212068FFF71DFD21
:1019C8000020B3E70020B1E70120AFE7022070470D
:1019D80001F01F014FF0010C0CFA01FC036A23EA25
:1019E8000C030362036A8A401343036270470000D2
:1019F80010B504460846002932D194F83E30DBB2CF
:101A0800013B18BF0123002B63D1002841D10223D9
:101A180084F83E30012201462068FFF7D9FF236889
:101A28002E4A934245D023682C4A934246D0B3F1BC
:101A3800804F43D0A2F57C4293423FD002F58062AA
:101A480093423BD002F58062934237D002F59A3236
:101A5800934233D01A6842F001021A60002037E03E
:101A6800042908D008290DD094F84130DBB2013B95
:101A780018BF0123C7E794F83F30DBB2013B18BF1A
:101A88000123C0E794F84030DBB2013B18BF0123C3
:101A9800B9E7042805D0082807D0022384F8413084
:101AA800B8E7022384F83F30B4E7022384F84030D3
:101AB800B0E75A6C42F400425A64B4E79A6802F0FC
:101AC8000702062A07D01A6842F001021A600020AD
:101AD80010BD0120FCE70020FAE700BF000001402C
:101AE80038B504460D4600220068FFF771FF2368E9
:101AF8001B4A934214D02368196A41F21112114209
:101B080008D1196A40F24442114203D11A6822F0FE
:101B180001021A609DB9012384F83E30002038BDC7
:101B2800196A41F211121142E5D1196A40F2444290
:101B38001142E0D15A6C22F400425A64DBE7042DCA
:101B480005D0082D07D0012384F84130E6E70123AA
:101B580084F83F30E2E7012384F84030DEE700BF35
:101B68000000014090F83C20012A35D010B403460B
:101B7800012280F83C20022280F83D20026850684B
:101B8800946820F0700C086840EA0C0050601A68ED
:101B98001248824212D0B2F1804F0FD0A0F57C409B
:101BA80082420BD000F58060824207D000F5806049
:101BB800824203D000F59A30824204D124F0800496
:101BC800496821439160012283F83D20002083F871
:101BD8003C005DF8044B704702207047000001404C
:101BE80070477047002800F0E08170B582B0044665
:101BF800036813F0010F3BD09F4B9B6803F00C0365
:101C0800042B2CD09C4B9B6803F00C03082B21D091
:101C18006368B3F5803F4FD0B3F5A02F52D0964BF1
:101C28001A6822F480321A601A6822F480221A6034
:101C38006368002B50D000F07FFC05468E4B1B6874
:101C480013F4003F14D100F077FC401B6428F5D949
:101C58000320B1E1884B5B6813F4800FD8D0864B22
:101C68001B6813F4003F03D06368002B00F09F81CA
:101C7800236813F0020F54D07F4B9B6813F00C0FAE
:101C88003ED07D4B9B6803F00C03082B33D0E368F0
:101C9800002B68D0794B01221A6000F04DFC0546F4
:101CA800754B1B6813F0020F54D100F045FC401B24
:101CB8000228F5D903207FE16F4A136843F4803383
:101CC8001360B5E76C4B1A6842F480221A601A68F0
:101CD80042F480321A60ABE700F02EFC0546664BF2
:101CE8001B6813F4003FC3D000F026FC401B642897
:101CF800F5D9032060E1604B5B6813F4800FC6D10F
:101D08005D4B1B6813F0020F03D0E368012B40F012
:101D18005081594A136823F0F803216943EAC10343
:101D28001360236813F0080F42D063696BB3534BF9
:101D38000122C3F8802E00F0FFFB05464E4B5B6F77
:101D480013F0020F34D100F0F7FB401B0228F5D93D
:101D5800032031E1484A136823F0F803216943EA74
:101D6800C1031360DDE7454B00221A6000F0E4FB75
:101D78000546414B1B6813F0020FD2D000F0DCFB84
:101D8800401B0228F5D9032016E13C4B0022C3F87A
:101D9800802E00F0D1FB0546374B5B6F13F0020F26
:101DA80006D000F0C9FB401B0228F5D9032003E147
:101DB800236813F0040F77D02F4B1B6C13F0805F50
:101DC80033D1002301932C4B1A6C42F080521A64D1
:101DD8001B6C03F080530193019B0125284B1B6862
:101DE80013F4807F23D0A368012B34D0052B38D07F
:101DF800214B1A6F22F001021A671A6F22F00402AF
:101E08001A67A368002B3DD000F096FB06461A4BD4
:101E18001B6F13F0020F46D100F08EFB801B41F2BE
:101E280088339842F3D90320C6E00025D6E7144A40
:101E3800136843F48073136000F07EFB0646104B72
:101E48001B6813F4807FCED100F076FB801B02283C
:101E5800F5D90320B0E0084A136F43F00103136774
:101E6800CFE7054B1A6F42F004021A671A6F42F067
:101E780001021A67C5E700BF003802400000474268
:101E88000070004000F058FB0646524B1B6F13F0E1
:101E9800020F08D000F050FB801B41F288339842B3
:101EA800F3D9032088E0EDB9A369002B00F0838003
:101EB800484A926802F00C02082A51D0022B17D027
:101EC800454B00221A6600F037FB0446414B1B685D
:101ED80013F0007F42D000F02FFB001B0228F5D939
:101EE800032069E03B4A136C23F080531364DBE75B
:101EF800394B00221A6600F01FFB0546354B1B685C
:101F080013F0007F06D000F017FB401B0228F5D91C
:101F1800032051E0E369226A1343626A43EA8213A9
:101F2800A26A5208013A43EA0243E26A43EA0263B8
:101F3800284A5360284B01221A6600F0FDFA04462D
:101F4800244B1B6813F0007F06D100F0F5FA001B44
:101F58000228F5D903202FE000202DE000202BE0F7
:101F6800012B2BD01B4B5B6803F48001E269914283
:101F780026D103F03F02216A8A4223D1616A47F6DB
:101F8800C0721A40B2EB811F1ED103F44031A26A1D
:101F98005208013AB1EB024F18D103F07063E26ABC
:101FA800B3EB026F14D1002006E001207047012036
:101FB80002E0012000E0002002B070BD0120FBE734
:101FC8000120F9E70120F7E70120F5E70120F3E711
:101FD8000120F1E7003802400000474208B5264BCF
:101FE8009B6803F00C03042B41D0082B41D1224BF2
:101FF8005A6802F03F025B6813F4800F12D01E4B40
:102008005968C1F388111D480023A1FB0001FEF7A0
:102018009BFA194B5B68C3F3014301335B00B0FBC8
:10202800F3F027E0144B5868C0F388104FEA401CBF
:10203800BCEB000C6EEB0E0E4FEA8E1343EA9C636A
:102048004FEA8C11B1EB0C0163EB0E03DB0043EAA2
:102058005173C90011EB000C43F1000399020023EE
:102068004FEA8C2041EA9C51FEF76EFAD1E703480B
:1020780000E0034808BD00BF0038024040787D01F9
:102088000024F400002800F09B8070B50D4604463B
:102098004F4B1B6803F007038B4208D2CBB24C4A64
:1020A8001370136803F007038B4240F08B8023689A
:1020B80013F0020F17D013F0040F04D0454A9368A9
:1020C80043F4E0539360236813F0080F04D0414AA7
:1020D800936843F4604393603E4A936823F0F003A7
:1020E800A1680B439360236813F0010F32D0636833
:1020F800012B21D09A1E012A25D9364A126812F0DE
:10210800020F61D033498A6822F0030213438B60BF
:1021180000F012FA06462F4B9B6803F00C03626826
:10212800B3EB820F16D000F007FA801B41F2883318
:102138009842F0D9032042E0264A126812F4003F80
:10214800E0D101203BE0234A126812F0007FD9D188
:10215800012034E01E4B1B6803F00703AB4207D98C
:10216800EAB21B4B1A701B6803F00703AB422DD170
:10217800236813F0040F06D0164A936823F4E0533B
:10218800E1680B439360236813F0080F07D0114AE6
:10219800936823F46043216943EAC1039360FFF71E
:1021A8001DFF0C4B9B68C3F303130B4AD35CD84049
:1021B8000A4B18600A4B186800F072F9002070BDCD
:1021C800012070470120FAE70120F8E70120F6E72F
:1021D800003C024000380240E02E000818000020B1
:1021E8001400002000230F2B00F2D78070B582B0B6
:1021F80065E085684FEA430E032404FA0EF425EAE5
:102208000405CC6804FA0EF42C438460446824EA7C
:1022180002044A68C2F300129A40224342605CE01A
:10222800DC08083450F8242003F00705AD004FF00F
:102238000F0E0EFA05FE22EA0E0E0A69AA4042EABD
:102248000E0240F824205CE0042200E0002202FA9A
:102258000EF22A430234514D45F82420504A94681E
:102268006FEA0C0224EA0C054E6816F4801F01D0B0
:102278004CEA04054A4CA560E46802EA04054E6885
:1022880016F4001F01D04CEA0405454CE56064686B
:1022980002EA04054E6816F4003F01D04CEA040532
:1022A8003F4C6560246822404D6815F4803F01D09A
:1022B8004CEA04023A4C226001330F2B6BD80122FE
:1022C8009A400C6804EA020C32EA0404F4D14C681F
:1022D80004F00304013C012C8BD94A6802F0030284
:1022E800032A09D0C4685D000322AA4024EA020434
:1022F8008A68AA402243C2604A6802F00302022A9E
:102308008ED004684FEA430E032202FA0EF224EA42
:1023180002044A6802F0030202FA0EF22243026043
:102328004A6812F4403FC7D0002201921D4A546CFB
:1023380044F480445464526C02F480420192019A3D
:102348009C08A51C154A52F8255003F0030E4FEAC5
:102358008E0E0F2202FA0EF225EA0205124A904268
:102368003FF474AF02F5806290420ED002F58062AD
:1023780090420CD002F5806290420AD002F5806249
:1023880090423FF461AF072261E701225FE7022232
:102398005DE703225BE702B070BD7047003801407B
:1023A800003C014000380240000002400369194225
:1023B80001D001207047002070470AB18161704741
:1023C8000904816170470000074AD36823F4E06379
:1023D8001B041B0C000200F4E060034343F0BF63DE
:1023E80043F40033D360704700ED00E000B5194BAB
:1023F800DB68C3F30223C3F1070CBCF1040F28BF49
:102408004FF0040C03F1040EBEF1060F18D9033B7C
:102418004FF0FF3E0EFA0CFC21EA0C0199400EFA2F
:1024280003FE22EA0E020A4300280BDB1201D2B295
:1024380000F1604000F5614080F800235DF804FB7E
:102448000023E5E700F00F001201D2B2024B1A5444
:10245800F4E700BF00ED00E014ED00E0002807DB22
:1024680000F01F02400901239340024A42F820303D
:10247800704700BF00E100E00138B0F1807F0BD267
:102488004FF0E0235861054AF02182F8231000201C
:10249800986107221A6170470120704700ED00E03B
:1024A80010B504460E4B1A784FF47A73B3FBF2F367
:1024B8000C4A1068B0FBF3F0FFF7DEFF68B90F2C89
:1024C80001D901200AE0002221464FF0FF30FFF732
:1024D8008DFF054B1C60002000E0012010BD00BFEF
:1024E80010000020180000201400002008B50B4B35
:1024F8001A6842F400721A601A6842F480621A601C
:102508001A6842F480721A600320FFF75DFF0F20FB
:10251800FFF7C6FFFEF7F8FD002008BD003C0240AB
:10252800034A1168034B1B780B441360704700BFC4
:102538007C01002010000020014B1868704700BF84
:102548007C01002038B50446FFF7F6FF0546B4F1D4
:10255800FF3F02D0044B1B781C44FFF7EDFF401BE4
:10256800A042FAD338BD00BF10000020034AD2F8B9
:10257800883043F47003C2F88830704700ED00E0FB
:102588004A4B5A6822F440325A605A6841680A43F2
:102598005A600268536823F4807353600268536872
:1025A800016943EA012353600268536823F04073CA
:1025B80053600268536881680B43536002689368EC
:1025C80023F40063936002689368C1680B439360C7
:1025D800826A374B9A4257D00268936823F0706337
:1025E800936002689368816A0B43936002689368FA
:1025F80023F04053936002689368C16A0B43936069
:102608000268936823F00203936002689368017E6E
:1026180043EA4103936090F82030002B3FD00268D2
:10262800536843F4006353600268536823F46043BB
:10263800536001684B68426A013A43EA42334B608F
:102648000268D36A23F47003D3620168CB6AC26953
:10265800013A43EA0253CB620268936823F4007399
:1026680093600268936890F8301043EA41239360BE
:102678000268936823F480639360026893684169F1
:1026880043EA8123936070470268936823F070637C
:1026980093600268936823F040539360B0E7026840
:1026A800536823F400635360CAE700BF0023014066
:1026B8000100000F38B310B50446036C43B1236C16
:1026C80013F0100F0BD00120002384F83C3010BD0C
:1026D800FEF736FD0023636484F83C30EFE7236C93
:1026E80023F4885323F0020343F0020323642046B3
:1026F800FFF746FF00206064236C23F0030343F0D8
:1027080001032364E0E701207047000082B0002342
:10271800019390F83C30012B6ED0012380F83C30B7
:1027280003689A6812F0010F13D19A6842F0010207
:102738009A60344B1B68344AA2FB03239B0C03EBBF
:102748004303019302E0019B013B0193019B002B92
:10275800F9D10268936813F0010F42D0036C23F497
:10276800E06323F0010343F480730364536813F4B4
:10277800806F05D0036C23F4405343F48053036403
:10278800036C13F4805F19D0436C23F00603436491
:10279800002380F83C306FF0220313601B4B5B680A
:1027A80013F01F0F0DD103689A6812F0405F25D10E
:1027B8009A6842F080429A6000201BE0002343643C
:1027C800E6E70368124A934201D0002012E09A68B3
:1027D80012F0405F14D19A6842F080429A6000205B
:1027E80008E0036C43F010030364436C43F00103F7
:1027F8004364002002B070470220FBE70020F9E79D
:102808000020F7E71800002083DE1B430023014067
:102818000020014070B504460D4603689A6812F41A
:10282800806F03D09B6813F4807F19D1FFF784FE73
:10283800064623681A6812F0020F20D1B5F1FF3F4F
:10284800F7D0B5B923681B6813F0020FF1D1236CD8
:1028580043F004032364002384F83C30032032E06F
:10286800036C43F020030364002380F83C3001200C
:1028780029E0FFF761FE801BA842DAD9E2E76FF092
:1028880012021A60236C43F40073236423689A6865
:1028980012F0405F16D1207EB0B9DA6A12F4700FD8
:1028A80003D09B6813F4806F0DD1236C23F48073DD
:1028B8002364236C13F4805F05D1236C43F0010378
:1028C800236400E0002070BD0020FCE70368D86C9A
:1028D8007047000030B482B00022019290F83C208A
:1028E800012A00F0C0800346012280F83C200A68D3
:1028F800092A40D90468E06892B202EB42021E3A03
:102908004FF0070C0CFA02F220EA0202E2601C689F
:10291800E0680A8802EB42021E3A8D6805FA02F264
:102928000243E2604A68062A3CD81C68606B02EBE6
:102938008202053A4FF01F0C0CFA02F220EA02025A
:1029480062631C68606B4A6802EB8202053AB1F860
:1029580000C00CFA02F2024362631868434A9042CC
:1029680050D01868414A904259D0002083F83C0062
:1029780002B030BC70470468206992B202EB420290
:102988004FF0070C0CFA02F220EA020222611C68DE
:1029980020690A8802EB42028D6805FA02F20243B6
:1029A8002261BFE70C2A16D81D68286B02EB820249
:1029B800233A1F2404FA02F220EA02022A631D685D
:1029C800286B4A6802EB8202233A0C8804FA02F266
:1029D80002432A63C1E71D68E86A02EB8202413AB2
:1029E8001F2404FA02F220EA0202EA621D68E86A79
:1029F8004A6802EB8202413A0C8804FA02F2024366
:102A0800EA62AAE70A68122AABD1194A506820F488
:102A180000005060506840F480005060A1E70A68E8
:102A28001448824201D0112A9FD1114A506820F4DB
:102A380080005060506840F40000506009680D4AFA
:102A4800914292D10C4A12680C49A1FB0212920CD5
:102A580002EB820252000192019A002A85D0019A63
:102A6800013A0192F8E7022082E700BF0020014006
:102A780000230140120000101800002083DE1B43D1
:102A8800DFF834D00D480E490E4A002302E0D4582E
:102A9800C4500433C4188C42F9D30B4A0B4C00239E
:102AA80001E013600432A242FBD3FFF75FFD00F0A0
:102AB80019F8FEF711F97047000002200000002005
:102AC8001C000020002F00081C00002080010020AE
:102AD800FEE702440346934200D1704703F8011B06
:102AE800F9E7000070B50D4D0D4C641BA4100026CD
:102AF800A64209D10B4D0C4C00F0CCF9641BA41074
:102B08000026A64205D170BD55F8043B984701360A
:102B1800EEE755F8043B98470136F2E7F82E00082F
:102B2800F82E0008F82E0008FC2E000853EC102B95
:102B3800C3F30A50A0F2FF31132910B59C4610EEDA
:102B480010EA20DC002908DB1F48084103EA0004DA
:102B5800144310D143EC102B10BD013103F0004C8D
:102B680004BF4CF07F5C4CF4401C002163460A46CD
:102B780043EC102B10BD4FF400230B41634423EAB0
:102B8800000C0021F2E733290ADDB1F5806FE1D1AD
:102B980010EE100A1946FDF701FB41EC100B10BDB1
:102BA800A0F213404FF0FF3424FA00F01042D1D0C5
:102BB8000123C1F1330103FA01F111EB0E0128BF22
:102BC8009C4421EA0001D1E7FFFF0F002DE9F047FF
:102BD800089E0D4604460F46002B4AD18A42944669
:102BE80065D9B2FA82F343B102FA03FCC3F12002B9
:102BF8009F4020FA02F217439C404FEA1C4E1FFAEE
:102C08008CF5B7FBFEF1220C0EFB117742EA074266
:102C180001FB05F090420AD91CEB020201F1FF37D3
:102C280080F01C81904240F2198102396244121AE4
:102C3800A4B2B2FBFEF00EFB102244EA024400FBF1
:102C480005F5A5420AD91CEB040400F1FF3280F017
:102C58000781A54240F204816444023840EA0140F9
:102C6800641B00211EB1DC400023C6E90043BDE817
:102C7800F0878B4208D9002E00F0ED800021C6E9CC
:102C880000050846BDE8F087B3FA83F1002949D169
:102C9800AB4202D3824200F2F880841A65EB030249
:102CA80001201746002EE2D0C6E90047DFE702B947
:102CB800FFDEB2FA82F3002B40F090808A1A4FEAC6
:102CC8001C471FFA8CFE0121B2FBF7F507FB152004
:102CD800220C42EA00420EFB05F0904208D91CEB98
:102CE800020205F1FF3802D2904200F2CB8045463D
:102CF800121AA4B2B2FBF7F007FB102244EA02440E
:102D08000EFB00FEA64508D91CEB040400F1FF32B7
:102D180002D2A64500F2BB801046A4EB0E0440EA9E
:102D280005409FE7C1F120078B4022FA07FC4CEAD7
:102D3800030C05FA01F420FA07F3FD404FEA1C4999
:102D48002343B5FBF9F81FFA8CFE09FB18551C0C38
:102D580044EA054408FB0EF5A54202FA01F200FA1E
:102D680001F00BD91CEB040408F1FF3A80F08880CD
:102D7800A54240F28580A8F102086444641B9DB214
:102D8800B4FBF9F309FB134445EA044403FB0EFEC4
:102D9800A64508D91CEB040403F1FF356CD2A645FF
:102DA8006AD9023B644443EA0843A3FB0295A4EBB7
:102DB8000E04AC42C846AE4656D353D056B1B0EB1B
:102DC800080264EB0E0404FA07F7CA40CC40174324
:102DD800C6E9007418460021BDE8F087C3F1200158
:102DE80002FA03FC20FA01F225FA01F19D402A4378
:102DF8004FEA1C471FFA8CFEB1FBF7F007FB1015D2
:102E0800110C41EA054100FB0EF58D4204FA03F46A
:102E180008D91CEB010100F1FF382FD28D422DD9C2
:102E280002386144491B92B2B1FBF7F507FB151153
:102E380042EA014205FB0EF1914208D91CEB02025D
:102E480005F1FF3816D2914214D9023D6244521A54
:102E580045EA004138E73146304608E73946E6E6B4
:102E68001046FBE64845A9D2B9EB020865EB0C0E03
:102E7800013BA3E74546EAE72B4694E74046D1E7FE
:102E8800D0467BE7023D624432E708460AE76444DD
:102E9800023842E7F8B500BFF8BC08BC9E46704748
:0C2EA800F8B500BFF8BC08BC9E4670479F
:102EB4007E0000000C000000B60000009E00000030
:102EC400CC000000DA000000FA0000000E00000050
:102ED400FE000000DE000000000000000000000012
:0C2EE400000000000102030406070809BA
:082EF000E4FCFF7F010000007B
:042EF800ED050008DC
:042EFC00C505000800
:102F00001A0000000A000000530000003C0000000E
:0C2F100001000000100000000024F4008C
:0400000508002A893C
:00000001FF
